:020000040800F2
:1000000050040020450100084B0F0008430F000872
:10001000470F0008B1010008CD12000800000000E1
:10002000000000000000000000000000B10F000808
:10003000F101000800000000850F0008B30F000860
:100040005F0100085F0100085F0100085F01000810
:100050005F0100085F010008F30100085F0100086C
:100060005F0100085F0100085F0100085F010008F0
:100070005F0100085F0100085F0100085F010008E0
:100080005F0100085F0100085F0100085F010008D0
:100090005F0100085F0100085F0100085F010008C0
:1000A0005F0100085F0100085F0100085F010008B0
:1000B0005F0100085F0100085F0100085F010008A0
:1000C0005F0100085F0100085F0100085F01000890
:1000D0005F010008A91200085F0100085F01000825
:1000E0005F0100085F0100085F0100085F01000870
:1000F0005F0100085F0100085F0100085F01000860
:100100005F0100085F0100085F0100085F0100084F
:100110005F0100085F0100085F0100085F0100083F
:100120005F0100085F0100085F0100085F0100082F
:10013000DFF80CD000F02AF80048004761130008EF
:10014000500400200648804706480047FEE7FEE7C7
:10015000FEE7FEE7FEE7FEE7FEE7FEE7FEE7FEE777
:100160001D10000831010008D2B201E000F8012B97
:10017000491EFBD270470022F6E710B513460A4627
:1001800004461946FFF7F0FF204610BD064C074D08
:1001900006E0E06840F0010394E807009847103457
:1001A000AC42F6D3FFF7C8FFD8130008F8130008D5
:1001B00000BFFEE710B50C480C4908604FF4E13071
:1001C0004860002109488160C160016181610C21A2
:1001D000416100F0C3FD05480068C06840F02000A0
:1001E00002490968C86010BD003801400C000020B9
:1001F000704770472DE9F84702460024002000258B
:100200008446002700237BE14FF0010808FA03F43D
:10021000D1F8008008EA0400A0427DD1DFF8ECA20A
:10022000D1F80480A8EB0A09D0453AD014DCB8F123
:10023000030F50D009DCB8F1000F31D0B8F1010F35
:100240001CD0B8F1020F49D120E0B8F1110F18D03D
:10025000B8F1120F42D11EE0B9F5881F25D006DC97
:10026000B9F5803F20D0B9F5801F37D11AE0B9F534
:10027000001F18D0B9F5041F30D117E0D1F80CC019
:100280002DE0D1F80C8008F1040C28E0D1F80C80A6
:1002900008F1080C23E0D1F80C8008F10C0C1EE0EA
:1002A00000BF00BF00BF00BF00BF00BFD1F8088083
:1002B000B8F1000F02D14FF0040C0BE0D1F8088028
:1002C000B8F1010F03D14FF0080C146102E04FF0B8
:1002D000080C546103E04FF0000C00E000BF00BFC9
:1002E000FF2801D8904601E002F104084646FF28A5
:1002F00002D84FEA830803E0A3F108084FEA880810
:100300004746D6F800804FF00F0909FA07F928EAA6
:1003100009080CFA07F900E07AE048EA0908C6F88B
:100320000080D1F8048008F08058B8F1805F6FD168
:1003300000BFDFF8DC81D8F8188048F00108DFF84A
:10034000D091C9F81880C846D8F8188008F001087C
:10035000CDF8008000BF00BF4FEAB9384FEA9309DB
:1003600058F829504FEA83784FEA18794FF00F0870
:1003700008FA09F825EA0805DFF89881424502D114
:100380004FF0000824E0DFF89081424502D14FF0A1
:1003900001081DE0DFF88481424502D14FF00208D8
:1003A00016E0DFF87C81424502D14FF003080FE0F0
:1003B000DFF87081424502D14FF0040808E0DFF811
:1003C0006881424502D14FF0050801E04FF0060870
:1003D0004FEA83794FEA197908FA09F848EA0505DE
:1003E000DFF848814FEA930948F82950D1F8048092
:1003F00008F48038B8F5803F0BD1DFF83481D8F8A5
:10040000008048EA0008DFF82891C9F800800AE077
:1004100075E0DFF81C81D8F8008028EA0008DFF8D2
:100420001091C9F80080D1F8048008F40038B8F5BC
:10043000003F0ED1DFF8F88008F10408D8F80080FA
:1004400048EA0008DFF8E89009F10409C9F80080DB
:100450000DE0DFF8DC8008F10408D8F8008028EA15
:100460000008DFF8CC9009F10409C9F80080D1F840
:10047000048008F48018B8F5801F0ED1DFF8B08032
:1004800008F10808D8F8008048EA0008DFF8A090D2
:1004900009F10809C9F800800DE0DFF8948008F13F
:1004A0000808D8F8008028EA0008DFF8849009F1ED
:1004B0000809C9F80080D1F8048008F40018B8F5DC
:1004C000001F0ED1DFF8688008F10C08D8F8008012
:1004D00048EA0008DFF8589009F10C09C9F80080D3
:1004E0000DE0DFF84C8008F10C08D8F8008028EA0D
:1004F0000008DFF83C9009F10C09C9F800805B1C8A
:10050000102BFFF481AEBDE8F88700000000111049
:100510000010024000080140000C014000100140A2
:100520000014014000180140001C01400800014077
:1005300000040140014800687047000004000020EA
:1005400002480068401C0149086070470400002010
:1005500010B50848006840F0100006490860032004
:1005600000F06AF80F2000F007F800F019F80020FA
:1005700010BD00000020024070B504460748006826
:100580004FF47A71B0FBF1F5284600F0CDFB002264
:100590002146501E00F012F8002070BD000000201F
:1005A000704700BF00F01F020121914042099200F4
:1005B00002F1E022C2F8001100BF70472DE9F05FA0
:1005C00080460D461646002700F0C0FC0746394617
:1005D0002A46334601F00700C0F1070ABAF1040FBA
:1005E00002D94FF0040A01E0C0F1070AD14600F138
:1005F000040ABAF1070F02D24FF0000A01E0A0F19D
:10060000030AD4464FF0010A0AFA09FAAAF1010ACC
:100610000AEA020A0AFA0CFA4FF0010B0BFA0CFB79
:10062000ABF1010B0BEA030B4AEA0B0421464046EF
:1006300000F094FCBDE8F09F00BF00F00702064BFD
:1006400019684FF6FF031940044B0B4343EA02219C
:10065000014B196000BF70470CED00E00000FA0587
:1006600070B504460D4600266248006800F0070099
:10067000A8420ED25F48006820F0070028435D4979
:1006800008600846006800F00700A84201D0012079
:1006900070BD207800F00200022807D1564840685B
:1006A00020F0F000A168084353494860207800F02A
:1006B000010000285DD06068012806D14E4800681E
:1006C00000F4003090B90120E2E76068022806D10A
:1006D0004948006800F0007040B90120D8E746485A
:1006E000006800F0020008B90120D1E742484068E4
:1006F00020F00300616808433F494860FFF71AFF94
:1007000006466068012810D108E0FFF713FF801B40
:1007100041F28831884201D90320B9E73648406860
:1007200000F00C000428F0D123E06068022810D10A
:1007300008E0FFF7FFFE801B41F28831884201D9B3
:100740000320A5E72C48406800F00C000828F0D1F1
:100750000FE008E0FFF7EEFE801B41F2883188428F
:1007600001D9032094E72448406800F00C000028D9
:10077000F0D12048006800F00700A8420ED91D48BB
:10078000006820F0070028431A49086008460068FE
:1007900000F00700A84201D0012079E7207800F09E
:1007A0000400042807D11448406820F4E060E168A0
:1007B000084311494860207800F00800082808D153
:1007C0000D48406820F46050216940EAC1000A49A0
:1007D000486000F03DF808494968C1F30311074A31
:1007E000515CC840064908600F20FFF7C5FE002095
:1007F0004EE700000020024000100240C013000835
:100800000000002001480068704700000000002040
:1008100000B5FFF7F7FF04494968C1F30221034A15
:10082000515CC84000BD000000100240D013000819
:1008300000B5FFF7E7FF04494968C1F3C221034A45
:10084000515CC84000BD000000100240D0130008F9
:10085000F0B585B00FF2700C9CE8E01001A8A0E89C
:10086000E0101DA52D680095002100240022002322
:1008700000201A4D696801F00C05FDB1042D02D06D
:10088000082D1AD101E016481AE001ADC1F38346E4
:10089000AB5D01F480355DB1104D6D68C5F3404529
:1008A0001DF805400E4DB5FBF4F505FB03F202E023
:1008B0000C4D03FB05F2104602E000BF084800BFE4
:1008C00000BF05B0F0BD00000203040506070809DB
:1008D0000A0B0C0D0E0F1010010200000010024058
:1008E00000127A0000093D00F8B504460025207882
:1008F00000F00100002878D0F848406800F00C00B3
:1009000004280CD0F548406800F00C00082811D1EC
:10091000F248406800F48030B0F5803F0AD1EF48DB
:10092000006800F4003000285FD0606800285CD1C7
:100930000120F8BD00BF6068B0F5803F06D1E748F0
:10094000006840F48030E549086028E0606858B9E4
:10095000E248006820F48030E049086008460068FA
:1009600020F4802008601AE06068B0F5A02F0BD159
:10097000DA48006840F48020D849086008460068DA
:1009800040F4803008600AE0D448006820F48030E9
:10099000D24908600846006820F48020086000BF43
:1009A000606888B1FFF7C6FD054606E0FFF7C2FDA7
:1009B000401B642801D90320BBE7C848006800F445
:1009C00000300028F2D010E0FFF7B4FD054606E045
:1009D000FFF7B0FD401B642801D90320A9E7BF48F9
:1009E000006800F400300028F2D1207800F0020006
:1009F000022857D1B948406800F00C0050B1B74800
:100A0000406800F00C00082818D1B448406800F491
:100A1000803098B9B148006800F0020020B1206928
:100A2000012801D0012084E7AC48006820F0F800DC
:100A3000616940EAC100A949086033E02069E8B172
:100A40000120A7490860FFF775FD054606E0FFF79E
:100A500071FD401B022801D903206AE79F48006806
:100A600000F002000028F2D09C48006820F0F80056
:100A7000616940EAC1009949086013E00020984983
:100A80000860FFF757FD054606E0FFF753FD401BE2
:100A9000022801D903204CE79048006800F00200CA
:100AA0000028F2D1207800F0080008282DD1A06994
:100AB000B8B101208B490860FFF73CFD054606E010
:100AC000FFF738FD401B022801D9032031E7834896
:100AD000406A00F002000028F2D0012000F054FA31
:100AE00013E000207F490860FFF724FD054606E07B
:100AF000FFF720FD401B022801D9032019E77748A2
:100B0000406A00F002000028F2D1207800F00400D2
:100B1000042873D100267148C06900F0805070B974
:100B200000BF6E48C06940F080506C49C8610846FB
:100B3000C06900F08050009000BF00BF01266A48E5
:100B4000006800F48070B0B96748006840F48070B5
:100B500065490860FFF7EEFC054606E0FFF7EAFC92
:100B6000401B642801D90320E3E65F48006800F4D5
:100B700080700028F2D000BFE068012806D15748F5
:100B8000006A40F001005549086227E0E06858B962
:100B90005248006A20F00100504908620846006A85
:100BA00020F00400086219E0E06805280BD14B48EA
:100BB000006A40F00400494908620846006A40F0B3
:100BC000010008620AE04548006A20F0010043493C
:100BD00008620846006A20F00400086200BFE0686E
:100BE000A0B1FFF7A7FC054609E0FFF7A3FC401BF7
:100BF00041F28831884202D903209AE622E0374840
:100C0000006A00F002000028EFD012E0FFF792FC2B
:100C1000054608E0FFF78EFC401B41F28831884210
:100C200001D9032085E62D48006A00F00200002863
:100C3000F0D1012E05D12948C06920F08050274904
:100C4000C86100BFE069C8B32448406800F00C00E8
:100C5000082860D0E069022848D1002020490866B1
:100C6000FFF768FC054606E0FFF764FC401B02281E
:100C700001D903205DE61948006800F000700028E3
:100C8000F2D1206AB0F5803F07D11448406820F4C3
:100C90000030A168084311494860D4E908010843BD
:100CA0000E49496821F4741108430C494860012039
:100CB0000B490866FFF73EFC054607E02DE0FFF70D
:100CC00039FC401B022801D9032032E603480068A2
:100CD00000F000700028F2D01FE000000010024079
:100CE00000004242800442420070004000200C4953
:100CF0000866FFF71FFC054606E0FFF71BFC401BDC
:100D0000022801D9032014E60648006800F00070AC
:100D10000028F2D101E001200BE6002009E60000E6
:100D2000000042420010024070B504462546681E8D
:100D3000B0F1807F01D301200FE0681E4FF0E02169
:100D400048610F214FF0FF3000F008F900204FF00C
:100D5000E021886107200861002070BD10B50446BD
:100D60000CB9012010BDA06900B100E000BF94F8EB
:100D7000390028B9002084F83800204600F028F80F
:100D8000242084F839002068C06820F400502168CD
:100D9000C860204600F06EF92068006920F4904099
:100DA000216808612068406920F02A0021684861B4
:100DB0002068C06840F400502168C8600020E063EB
:100DC000202084F8390084F83A000020CAE70000A7
:100DD00010B586B0044600BF2248806940F48040C8
:100DE000204988610846806900F48040019000BF76
:100DF00000BF00BF0846806940F0040088610846D3
:100E0000806900F00400019000BF00BF00BF0846E9
:100E1000806940F0040088610846806900F00400A1
:100E2000019000BF00BF48150290022003900120EE
:100E300004900320059002A90B48FFF7DBF94FF45B
:100E4000806002900020039002A90748FFF7D2F9C2
:100E5000012200212520FFF7B1FB2520FFF7A1FB90
:100E600006B010BD00100240000801402DE9F84313
:100E700004460D4616461F464FF0000994F8390007
:100E800020285CD105B116B90120BDE8F88300BF68
:100E900094F83800012801D10220F6E7012084F8F7
:100EA000380000BF0020E063212084F83900FFF7FC
:100EB00041FB8146A684E6842BE0E08C401EE08462
:100EC000A068B0F5805F16D14B46002280212046F5
:100ED000009700F0B3F908B10320D6E7A846B8F8A8
:100EE0000000C0F3080021684860206908B9AD1C03
:100EF0000FE06D1C0DE04B4600228021204600973C
:100F000000F09CF908B10320BFE715F8010B216838
:100F10004860E08C0028D0D14B460022402120467A
:100F2000009700F08BF908B10320AEE7202084F889
:100F3000390000BF002084F8380000BFA5E7022078
:100F4000A3E700BFFEE700BFFEE770470248006866
:100F5000C0F30220704700000CED00E010B500283F
:100F600007DA0A07140E054A00F00F031B1FD454BA
:100F700003E00A07130E024A135410BD18ED00E0F7
:100F800000E400E07047000008B508490968C90896
:100F90004FF47A72B1FBF2F14143009100BF00BF00
:100FA00000994A1E00920029F9D108BD00000020D6
:100FB000704710B5FFF7C4FA10BD00B58FB014210B
:100FC0000AA8FFF7D8F828216846FFF7D4F80120CF
:100FD0000090000401900020029002200790C103BD
:100FE00008914FF4E01109916846FFF77DFC08B1C4
:100FF00000BFFEE70F200A9002200B9000200C900B
:101000000E904FF480600D9002210AA8FFF728FB94
:1010100008B100BFFEE70FB000BD00001148006836
:1010200040F001000F490860084640680E4908403A
:101030000C494860084600680C49084009490860A6
:101040000846006820F4802008600846406820F4C4
:10105000FE0048604FF41F008860C8030449086020
:1010600070470000001002400000FFF8FFFFF6FE8E
:1010700008ED00E02DE9F0410446002520680069F4
:1010800020F44050E1680843216808612169A068A4
:1010900008436169084305432068C06841F20C6158
:1010A000884328432168C8602068406920F4407064
:1010B000A1690843216848615F49206888425CD182
:1010C000FFF7B6FB00EBC00101EB0010616889007F
:1010D000B0FBF1F6FFF7ACFB00EBC00101EB001039
:1010E00061688900B0FBF1F06421B0FBF1F000EB26
:1010F000C00101EB0010A6EB8000322101EB0010D3
:101100006421B0FBF1F000F0F006FFF791FB00EB7B
:10111000C00101EB001061688900B0FBF1F06421AF
:10112000B0FBF1F006EB0016FFF782FB00EBC0010D
:1011300001EB001061688900B0FBF1F7FFF778FB65
:1011400000EBC00101EB001061688900B0FBF1F019
:101150006421B0FBF1F000EBC00101EB0010A7EB44
:101160008000322101EB00106421B0FBF1F000F0AF
:101170000F003044216888605BE0FFF749FB00EB1B
:10118000C00101EB001061688900B0FBF1F6FFF7C8
:101190003FFB00EBC00101EB001061688900B0FB70
:1011A000F1F06421B0FBF1F000EBC00101EB0010A5
:1011B000A6EB8000322101EB00106421B0FBF1F0BE
:1011C00000F0F006FFF724FB00EBC00101EB00107C
:1011D00061688900B0FBF1F06421B0FBF1F006EB2F
:1011E0000016FFF715FB00EBC00101EB0010616872
:1011F0008900B0FBF1F7FFF70BFB00EBC00101EB3F
:10120000001061688900B0FBF1F06421B0FBF1F0DF
:1012100000EBC00101EB0010A7EB8000322101EBD5
:1012200000106421B0FBF1F000F00F0030442168A1
:101230008860BDE8F0810000003801402DE9F041F0
:1012400004460D4617469846069E21E0701CF8B1EC
:101250002EB1FFF76FF9A0EB0800B04218D9206853
:10126000C06820F4D0702168C8602068406920F010
:10127000010021684861202084F8390084F83A0090
:1012800000BF002084F8380000BF0320BDE8F081D3
:10129000206800682840A84201D1012000E0002019
:1012A000B842D3D00020F1E7002007490968096857
:1012B000C1F3401131B1044909684968C8B2024913
:1012C00009684860704700000C00002000BFFEE77E
:1012D00070B50446002500BF61194FF47A730122EE
:1012E0000348FFF7C3FD6D1C605D0028F4D170BD9D
:1012F0000C000020014A024900F013B84513000811
:101300000800002002E008C8121F08C1002AFAD114
:1013100070477047002001E001C1121F002AFBD175
:1013200070472DE9F04116460F460446002503E0BC
:101330003946B047641C6D1C20780028F8D1284637
:10134000BDE8F08113B50C464FF47A73012269466B
:101350000248FFF78BFD00981CBD00000C00002028
:10136000FFF7F6F8FFF729FEFEF724FF03A0FFF7CB
:10137000C1FF07A0FFF7ACFF00BFFEE7BBB6D3ADD0
:10138000CAB9D3C3D2B0BBF0BFAAB7A2B0E50A00B6
:10139000D7D4B6A8D2E5BAAFCAFDCAE4B3F6A3BAA9
:1013A000D5E2CAC7D2BBB8F6B4AEBFDAD6D0B6CF94
:1013B000BDD3CAD5BBD8CFD4CAB5D1E90A00000085
:1013C00000000000000000000102030406070809F5
:1013D0000000000001020304F813000800000020D0
:1013E0000C00000004130008041400080C00002086
:1013F000440400001413000800A24A040000000086
:0414000000000000E8
:0400000508000131BD
:00000001FF
